{"abi":[{"type":"constructor","inputs":[{"name":"payees","type":"address[]","internalType":"address[]"},{"name":"shares_","type":"uint256[]","internalType":"uint256[]"},{"name":"_tokenAddress","type":"address","internalType":"address"}],"stateMutability":"nonpayable"},{"type":"fallback","stateMutability":"payable"},{"type":"receive","stateMutability":"payable"},{"type":"function","name":"forwardERC20","inputs":[],"outputs":[],"stateMutability":"nonpayable"},{"type":"function","name":"payee","inputs":[{"name":"index","type":"uint256","internalType":"uint256"}],"outputs":[{"name":"","type":"address","internalType":"address"}],"stateMutability":"view"},{"type":"function","name":"releasable","inputs":[{"name":"account","type":"address","internalType":"address"}],"outputs":[{"name":"","type":"uint256","internalType":"uint256"}],"stateMutability":"view"},{"type":"function","name":"releasable","inputs":[{"name":"token","type":"address","internalType":"contract IERC20"},{"name":"account","type":"address","internalType":"address"}],"outputs":[{"name":"","type":"uint256","internalType":"uint256"}],"stateMutability":"view"},{"type":"function","name":"release","inputs":[{"name":"account","type":"address","internalType":"address payable"}],"outputs":[],"stateMutability":"nonpayable"},{"type":"function","name":"release","inputs":[{"name":"token","type":"address","internalType":"contract IERC20"},{"name":"account","type":"address","internalType":"address"}],"outputs":[],"stateMutability":"nonpayable"},{"type":"function","name":"released","inputs":[{"name":"token","type":"address","internalType":"contract IERC20"},{"name":"account","type":"address","internalType":"address"}],"outputs":[{"name":"","type":"uint256","internalType":"uint256"}],"stateMutability":"view"},{"type":"function","name":"released","inputs":[{"name":"account","type":"address","internalType":"address"}],"outputs":[{"name":"","type":"uint256","internalType":"uint256"}],"stateMutability":"view"},{"type":"function","name":"shares","inputs":[{"name":"account","type":"address","internalType":"address"}],"outputs":[{"name":"","type":"uint256","internalType":"uint256"}],"stateMutability":"view"},{"type":"function","name":"token","inputs":[],"outputs":[{"name":"","type":"address","internalType":"contract IERC20"}],"stateMutability":"view"},{"type":"function","name":"totalPayees","inputs":[],"outputs":[{"name":"","type":"uint256","internalType":"uint256"}],"stateMutability":"view"},{"type":"function","name":"totalReleased","inputs":[{"name":"token","type":"address","internalType":"contract IERC20"}],"outputs":[{"name":"","type":"uint256","internalType":"uint256"}],"stateMutability":"view"},{"type":"function","name":"totalReleased","inputs":[],"outputs":[{"name":"","type":"uint256","internalType":"uint256"}],"stateMutability":"view"},{"type":"function","name":"totalShares","inputs":[],"outputs":[{"name":"","type":"uint256","internalType":"uint256"}],"stateMutability":"view"},{"type":"event","name":"ERC20PaymentReleased","inputs":[{"name":"token","type":"address","indexed":true,"internalType":"contract IERC20"},{"name":"to","type":"address","indexed":false,"internalType":"address"},{"name":"amount","type":"uint256","indexed":false,"internalType":"uint256"}],"anonymous":false},{"type":"event","name":"PayeeAdded","inputs":[{"name":"account","type":"address","indexed":false,"internalType":"address"},{"name":"shares","type":"uint256","indexed":false,"internalType":"uint256"}],"anonymous":false},{"type":"event","name":"PaymentReceived","inputs":[{"name":"from","type":"address","indexed":false,"internalType":"address"},{"name":"amount","type":"uint256","indexed":false,"internalType":"uint256"}],"anonymous":false},{"type":"event","name":"PaymentReleased","inputs":[{"name":"to","type":"address","indexed":false,"internalType":"address"},{"name":"amount","type":"uint256","indexed":false,"internalType":"uint256"}],"anonymous":false},{"type":"error","name":"AddressEmptyCode","inputs":[{"name":"target","type":"address","internalType":"address"}]},{"type":"error","name":"AddressInsufficientBalance","inputs":[{"name":"account","type":"address","internalType":"address"}]},{"type":"error","name":"FailedInnerCall","inputs":[]},{"type":"error","name":"SafeERC20FailedOperation","inputs":[{"name":"token","type":"address","internalType":"address"}]}],"bytecode":{"object":"0x608060405234801561001057600080fd5b506040516112d43803806112d483398101604081905261002f9161044b565b828280518251146100a25760405162461bcd60e51b815260206004820152603260248201527f5061796d656e7453706c69747465723a2070617965657320616e6420736861726044820152710cae640d8cadccee8d040dad2e6dac2e8c6d60731b60648201526084015b60405180910390fd5b60008251116100f35760405162461bcd60e51b815260206004820152601a60248201527f5061796d656e7453706c69747465723a206e6f207061796565730000000000006044820152606401610099565b60005b82518110156101495761014183828151811061011457610114610524565b602002602001015183838151811061012e5761012e610524565b602002602001015161017560201b60201c565b6001016100f6565b5050600780546001600160a01b0319166001600160a01b03939093169290921790915550610561915050565b6001600160a01b0382166101e05760405162461bcd60e51b815260206004820152602c60248201527f5061796d656e7453706c69747465723a206163636f756e74206973207468652060448201526b7a65726f206164647265737360a01b6064820152608401610099565b600081116102305760405162461bcd60e51b815260206004820152601d60248201527f5061796d656e7453706c69747465723a207368617265732061726520300000006044820152606401610099565b6001600160a01b038216600090815260026020526040902054156102aa5760405162461bcd60e51b815260206004820152602b60248201527f5061796d656e7453706c69747465723a206163636f756e7420616c726561647960448201526a206861732073686172657360a81b6064820152608401610099565b60048054600181019091557f8a35acfbc15ff81a39ae7d344fd709f28e8600b4aa8c65c6b64bfe7fe36bd19b0180546001600160a01b0319166001600160a01b03841690811790915560009081526002602052604081208290555461031090829061053a565b600055604080516001600160a01b0384168152602081018390527f40c340f65e17194d14ddddb073d3c9f888e3cb52b5aae0c6c7706b4fbc905fac910160405180910390a15050565b634e487b7160e01b600052604160045260246000fd5b604051601f8201601f191681016001600160401b038111828210171561039757610397610359565b604052919050565b60006001600160401b038211156103b8576103b8610359565b5060051b60200190565b80516001600160a01b03811681146103d957600080fd5b919050565b600082601f8301126103ef57600080fd5b81516104026103fd8261039f565b61036f565b8082825260208201915060208360051b86010192508583111561042457600080fd5b602085015b83811015610441578051835260209283019201610429565b5095945050505050565b60008060006060848603121561046057600080fd5b83516001600160401b0381111561047657600080fd5b8401601f8101861361048757600080fd5b80516104956103fd8261039f565b8082825260208201915060208360051b8501019250888311156104b757600080fd5b6020840193505b828410156104e0576104cf846103c2565b8252602093840193909101906104be565b6020880151909650925050506001600160401b0381111561050057600080fd5b61050c868287016103de565b92505061051b604085016103c2565b90509250925092565b634e487b7160e01b600052603260045260246000fd5b8082018082111561055b57634e487b7160e01b600052601160045260246000fd5b92915050565b610d64806105706000396000f3fe6080604052600436106100e15760003560e01c8063a3f8eace1161007f578063d652eff711610059578063d652eff714610275578063d79779b21461028a578063e33b7de3146102c0578063fc0c546a146102d5576100f0565b8063a3f8eace146101ff578063c45ac0501461021f578063ce7c2ac21461023f576100f0565b806348b75044116100bb57806348b750441461015c57806371b5bba61461017c5780638b83209b146101915780639852595c146101c9576100f0565b806319165587146100f85780633a98ef3914610118578063406072a91461013c576100f0565b366100f0576100ee6102f5565b005b6100ee6102f5565b34801561010457600080fd5b506100ee610113366004610b03565b61032f565b34801561012457600080fd5b506000545b6040519081526020015b60405180910390f35b34801561014857600080fd5b50610129610157366004610b20565b61041f565b34801561016857600080fd5b506100ee610177366004610b20565b61044c565b34801561018857600080fd5b5061012961055d565b34801561019d57600080fd5b506101b16101ac366004610b59565b610637565b6040516001600160a01b039091168152602001610133565b3480156101d557600080fd5b506101296101e4366004610b03565b6001600160a01b031660009081526003602052604090205490565b34801561020b57600080fd5b5061012961021a366004610b03565b610667565b34801561022b57600080fd5b5061012961023a366004610b20565b6106af565b34801561024b57600080fd5b5061012961025a366004610b03565b6001600160a01b031660009081526002602052604090205490565b34801561028157600080fd5b506100ee610755565b34801561029657600080fd5b506101296102a5366004610b03565b6001600160a01b031660009081526005602052604090205490565b3480156102cc57600080fd5b50600154610129565b3480156102e157600080fd5b506007546101b1906001600160a01b031681565b60006102ff61055d565b905060005b8181101561032b57600061031782610637565b90506103228161032f565b50600101610304565b5050565b6001600160a01b03811660009081526002602052604090205461036d5760405162461bcd60e51b815260040161036490610b72565b60405180910390fd5b600061037882610667565b90508060000361039a5760405162461bcd60e51b815260040161036490610bb8565b80600160008282546103ac9190610c19565b90915550506001600160a01b03821660009081526003602052604090208054820190556103d9828261085d565b604080516001600160a01b0384168152602081018390527fdf20fd1e76bc69d672e4814fafb2c449bba3a5369d8359adf9e05e6fde87b056910160405180910390a15050565b6001600160a01b038083166000908152600660209081526040808320938516835292905220545b92915050565b6001600160a01b0381166000908152600260205260409020546104815760405162461bcd60e51b815260040161036490610b72565b600061048d83836106af565b9050806000036104af5760405162461bcd60e51b815260040161036490610bb8565b6001600160a01b038316600090815260056020526040812080548392906104d7908490610c19565b90915550506001600160a01b0380841660009081526006602090815260408083209386168352929052208054820190556105128383836108f4565b604080516001600160a01b038481168252602082018490528516917f3be5b7a71e84ed12875d241991c70855ac5817d847039e17a9d895c1ceb0f18a910160405180910390a2505050565b604051638b83209b60e01b81526000600482018190529081903090638b83209b90602401602060405180830381865afa9250505080156105ba575060408051601f3d908101601f191682019092526105b791810190610c2c565b60015b15610632575b604051638b83209b60e01b8152600481018390523090638b83209b90602401602060405180830381865afa925050508015610618575060408051601f3d908101601f1916820190925261061591810190610c2c565b60015b15610630578261062781610c49565b935050506105c0565b505b919050565b60006004828154811061064c5761064c610c62565b6000918252602090912001546001600160a01b031692915050565b60008061067360015490565b61067d9047610c19565b90506106a883826106a3866001600160a01b031660009081526003602052604090205490565b610946565b9392505050565b6001600160a01b03821660009081526005602052604081205481906040516370a0823160e01b81523060048201526001600160a01b038616906370a0823190602401602060405180830381865afa15801561070e573d6000803e3d6000fd5b505050506040513d601f19601f820116820180604052508101906107329190610c78565b61073c9190610c19565b905061074d83826106a3878761041f565b949350505050565b6007546040516370a0823160e01b81523060048201526000916001600160a01b0316906370a0823190602401602060405180830381865afa15801561079e573d6000803e3d6000fd5b505050506040513d601f19601f820116820180604052508101906107c29190610c78565b9050600081116108145760405162461bcd60e51b815260206004820152601d60248201527f4e6f20455243323020746f6b656e7320746f20646973747269627574650000006044820152606401610364565b600061081e61055d565b905060005b8181101561085857600061083682610637565b60075490915061084f906001600160a01b03168261044c565b50600101610823565b505050565b804710156108805760405163cd78605960e01b8152306004820152602401610364565b6000826001600160a01b03168260405160006040518083038185875af1925050503d80600081146108cd576040519150601f19603f3d011682016040523d82523d6000602084013e6108d2565b606091505b505090508061085857604051630a12f52160e11b815260040160405180910390fd5b604080516001600160a01b038416602482015260448082018490528251808303909101815260649091019091526020810180516001600160e01b031663a9059cbb60e01b179052610858908490610981565b600080546001600160a01b03851682526002602052604082205483919061096d9086610c91565b6109779190610ca8565b61074d9190610cca565b60006109966001600160a01b038416836109e4565b905080516000141580156109bb5750808060200190518101906109b99190610cdd565b155b1561085857604051635274afe760e01b81526001600160a01b0384166004820152602401610364565b60606106a88383600084600080856001600160a01b03168486604051610a0a9190610cff565b60006040518083038185875af1925050503d8060008114610a47576040519150601f19603f3d011682016040523d82523d6000602084013e610a4c565b606091505b5091509150610a5c868383610a66565b9695505050505050565b606082610a7b57610a7682610ac2565b6106a8565b8151158015610a9257506001600160a01b0384163b155b15610abb57604051639996b31560e01b81526001600160a01b0385166004820152602401610364565b50806106a8565b805115610ad25780518082602001fd5b604051630a12f52160e11b815260040160405180910390fd5b50565b6001600160a01b0381168114610aeb57600080fd5b600060208284031215610b1557600080fd5b81356106a881610aee565b60008060408385031215610b3357600080fd5b8235610b3e81610aee565b91506020830135610b4e81610aee565b809150509250929050565b600060208284031215610b6b57600080fd5b5035919050565b60208082526026908201527f5061796d656e7453706c69747465723a206163636f756e7420686173206e6f2060408201526573686172657360d01b606082015260800190565b6020808252602b908201527f5061796d656e7453706c69747465723a206163636f756e74206973206e6f742060408201526a191d59481c185e5b595b9d60aa1b606082015260800190565b634e487b7160e01b600052601160045260246000fd5b8082018082111561044657610446610c03565b600060208284031215610c3e57600080fd5b81516106a881610aee565b600060018201610c5b57610c5b610c03565b5060010190565b634e487b7160e01b600052603260045260246000fd5b600060208284031215610c8a57600080fd5b5051919050565b808202811582820484141761044657610446610c03565b600082610cc557634e487b7160e01b600052601260045260246000fd5b500490565b8181038181111561044657610446610c03565b600060208284031215610cef57600080fd5b815180151581146106a857600080fd5b6000825160005b81811015610d205760208186018101518583015201610d06565b50600092019182525091905056fea2646970667358221220b7ac6edac14ced7197a3aa7c8ceab8aa83006e277048ddf4112020f7cfe3c35e64736f6c634300081b0033","linkReferences":{}},"methodIdentifiers":{"forwardERC20()":"d652eff7","payee(uint256)":"8b83209b","releasable(address)":"a3f8eace","releasable(address,address)":"c45ac050","release(address)":"19165587","release(address,address)":"48b75044","released(address)":"9852595c","released(address,address)":"406072a9","shares(address)":"ce7c2ac2","token()":"fc0c546a","totalPayees()":"71b5bba6","totalReleased()":"e33b7de3","totalReleased(address)":"d79779b2","totalShares()":"3a98ef39"},"id":0}